:020000040000FA
:10000000000200104D0100005501000057010000E2
:10001000590100005B0100005D01000000000000CC
:100020000000000000000000000000005F01000070
:100030006101000000000000630100006501000094
:100040006701000067010000670100006701000010
:100050006701000067010000670100006701000000
:1000600067010000670100006701000067010000F0
:1000700067010000670100006701000067010000E0
:1000800067010000670100006701000067010000D0
:1000900067010000670100006701000067010000C0
:1000A00067010000670100006701000067010000B0
:1000B00067010000670100006701000067010000A0
:1000C00067010000670100006701000000F002F80E
:1000D00000F02CF80AA090E8000C82448344AAF1B6
:1000E0000107DA4501D100F021F8AFF2090EBAE8B4
:1000F0000F0013F0010F18BFFB1A43F0010318475C
:1001000084040000A404000000230024002500262D
:10011000103A28BF78C1FBD8520728BF30C148BF6A
:100120000B6070471FB51FBD10B510BD00F02FF854
:100130001146FFF7F7FF00F083F900F04DF803B424
:10014000FFF7F2FF03BC00F055F8000009488047B4
:1001500009480047FEE7FEE7FEE7FEE7FEE7FEE7A9
:10016000FEE7FEE7FEE7FEE704480549034A054BC4
:100170007047000001030000CD00000060C00720B0
:10018000000200100000001070477047704775466D
:1001900000F02CF8AE4605006946534620F00700F3
:1001A000854618B020B5FFF7DFFFBDE820404FF0CF
:1001B00000064FF000074FF000084FF0000B21F051
:1001C0000701AC46ACE8C009ACE8C009ACE8C0091E
:1001D000ACE8C0098D46704710B50446AFF3008007
:1001E0002046BDE81040FFF7AABF00000048704756
:1001F00000C0072001491820ABBEFEE72600020020
:1002000070470000214800682049C439D1F8C41063
:1002100041F0007108431D49C439C1F8C4001B48AE
:10022000E83000681949E831096821F48021084361
:100230001649C439C1F8AC011548007B1449097B43
:1002400041F080010843124908730846007B097B8E
:1002500041F0030108430E490873A22008700020F2
:1002600008710846007B20F0800008730948006888
:1002700040F008000749096841F0020108430549B8
:10028000096808430349086070470000C4C00F4074
:1002900000C0094000C0024000B5024607E00D2042
:1002A00000F056F90A2000F053F9501EC2B2002A9D
:1002B000F5DC00BD00BF0449097D01F00101002902
:1002C000F9D001490878704700C0094010B50246CE
:1002D000002308E0FFF7EEFF04462A2000F038F97B
:1002E000D454581CC3B20D2CF4D10020D05410BDEE
:1002F000000000000000000000000000FFFFFFFF02
:1003000020204B4908604B48D0F8A00100F02000A5
:1003100030B100BF4648006800F040000028F9D026
:10032000032043499C39086000204249C1F8A801D4
:100330003F490C31086001203D49943908603E482E
:100340003C4984310860AA203A498C310860552024
:1003500008600120374980310860AA2035498C3176
:10036000086055203349C1F88C0000BF31488830FF
:10037000006800F080600028F8D003202D4980310B
:100380000860AA202B49C1F88C00552029498C31DE
:10039000086000BF27488830006800F04070B0F166
:1003A000407FF7D123202349A4310860AA202149A6
:1003B000C1F8AC0055201F49AC31086001201D492F
:1003C000A0310860AA201B49AC31086055201949AA
:1003D000C1F8AC0000BF1748A830006800F4806086
:1003E0000028F8D003201349A0310860AA20114941
:1003F000C1F8AC0055200F49AC31086000BF0D4872
:10040000A830006800F44070B0F5407FF7D10B4889
:100410000849C431086000200649C1F8C8010846EF
:10042000006820F4704040F480400860704700008D
:10043000A0C10F4000C00F4063000500DE87280404
:100440008FB0FFF7DFFE29E015A000F08DF8052042
:10045000FFF722FF21A000F087F80AA800F066F855
:100460000220FFF719FF22A000F07EF86846FFF790
:100470002DFF0220FFF710FF22A000F075F80AA858
:1004800000F072F80220FFF707FF23A000F06CF8DD
:10049000684600F069F80220FFF7FEFED4E700008E
:1004A0003D3D3D3D3D3D3D3D3D3D3D3D3E4B696E10
:1004B000646C7920456E74657220796F7572206462
:1004C000657461696C73203C3D3D3D3D3D3D3D3D66
:1004D0003D3D3D3D3D3D3D3D000000005573657295
:1004E000204E616D6520202020203A200000000071
:1004F000456E7465722050617373776F72643A2031
:1005000000000000596F757220757365726E616D21
:1005100065206973203A200050617373776F7264AD
:100520002069732020202020203A200010B50346A7
:10053000002408E0FFF7BEFE0246104600F008F86F
:100540001A55601CC4B20D2AF4D10020185510BDF4
:1005500000BF0449097D01F020010029F9D00149BB
:100560000870704700C0094010B50246002305E03E
:1005700019465C1CE3B2505CFFF7EAFFD05C002830
:10058000F6D110BDA405000000000010000200001C
:1005900008010000A405000000C007206000000062
:0405A000080100004E
:04000005000000CD2A
:00000001FF
